{
  "_format": "hh-sol-artifact-1",
  "contractName": "SpendingLimitWallet",
  "sourceName": "contracts/SpendingLimitWallet.sol",
  "abi": [
    {
      "anonymous": false,
      "inputs": [
        {
          "indexed": true,
          "internalType": "address",
          "name": "parent",
          "type": "address"
        },
        {
          "indexed": true,
          "internalType": "address",
          "name": "child",
          "type": "address"
        }
      ],
      "name": "ChildAdded",
      "type": "event"
    },
    {
      "anonymous": false,
      "inputs": [
        {
          "indexed": true,
          "internalType": "address",
          "name": "parent",
          "type": "address"
        },
        {
          "indexed": true,
          "internalType": "address",
          "name": "child",
          "type": "address"
        },
        {
          "indexed": false,
          "internalType": "bool",
          "name": "isFrozen",
          "type": "bool"
        }
      ],
      "name": "Frozen",
      "type": "event"
    },
    {
      "anonymous": false,
      "inputs": [
        {
          "indexed": true,
          "internalType": "address",
          "name": "parent",
          "type": "address"
        },
        {
          "indexed": true,
          "internalType": "address",
          "name": "child",
          "type": "address"
        },
        {
          "indexed": false,
          "internalType": "uint256",
          "name": "perTx",
          "type": "uint256"
        },
        {
          "indexed": false,
          "internalType": "uint256",
          "name": "daily",
          "type": "uint256"
        }
      ],
      "name": "LimitsUpdated",
      "type": "event"
    },
    {
      "anonymous": false,
      "inputs": [
        {
          "indexed": true,
          "internalType": "address",
          "name": "parent",
          "type": "address"
        },
        {
          "indexed": true,
          "internalType": "address",
          "name": "merchant",
          "type": "address"
        },
        {
          "indexed": false,
          "internalType": "bool",
          "name": "allowed",
          "type": "bool"
        }
      ],
      "name": "MerchantWhitelistUpdated",
      "type": "event"
    },
    {
      "anonymous": false,
      "inputs": [
        {
          "indexed": true,
          "internalType": "address",
          "name": "child",
          "type": "address"
        },
        {
          "indexed": true,
          "internalType": "address",
          "name": "merchant",
          "type": "address"
        },
        {
          "indexed": false,
          "internalType": "uint256",
          "name": "amount",
          "type": "uint256"
        }
      ],
      "name": "Payment",
      "type": "event"
    },
    {
      "anonymous": false,
      "inputs": [
        {
          "indexed": true,
          "internalType": "address",
          "name": "parent",
          "type": "address"
        },
        {
          "indexed": true,
          "internalType": "address",
          "name": "child",
          "type": "address"
        },
        {
          "indexed": false,
          "internalType": "uint256",
          "name": "amount",
          "type": "uint256"
        },
        {
          "indexed": false,
          "internalType": "uint256",
          "name": "expires",
          "type": "uint256"
        }
      ],
      "name": "TempApproved",
      "type": "event"
    },
    {
      "anonymous": false,
      "inputs": [
        {
          "indexed": true,
          "internalType": "address",
          "name": "child",
          "type": "address"
        },
        {
          "indexed": false,
          "internalType": "uint256",
          "name": "amount",
          "type": "uint256"
        }
      ],
      "name": "TempRequested",
      "type": "event"
    },
    {
      "inputs": [
        {
          "internalType": "address",
          "name": "child",
          "type": "address"
        }
      ],
      "name": "addChild",
      "outputs": [],
      "stateMutability": "nonpayable",
      "type": "function"
    },
    {
      "inputs": [
        {
          "internalType": "address",
          "name": "child",
          "type": "address"
        },
        {
          "internalType": "uint256",
          "name": "amount",
          "type": "uint256"
        },
        {
          "internalType": "uint256",
          "name": "validSeconds",
          "type": "uint256"
        }
      ],
      "name": "approveTemp",
      "outputs": [],
      "stateMutability": "nonpayable",
      "type": "function"
    },
    {
      "inputs": [
        {
          "internalType": "address",
          "name": "child",
          "type": "address"
        }
      ],
      "name": "dailySpent",
      "outputs": [
        {
          "internalType": "uint256",
          "name": "",
          "type": "uint256"
        },
        {
          "internalType": "uint256",
          "name": "",
          "type": "uint256"
        }
      ],
      "stateMutability": "view",
      "type": "function"
    },
    {
      "inputs": [
        {
          "internalType": "address",
          "name": "",
          "type": "address"
        }
      ],
      "name": "frozen",
      "outputs": [
        {
          "internalType": "bool",
          "name": "",
          "type": "bool"
        }
      ],
      "stateMutability": "view",
      "type": "function"
    },
    {
      "inputs": [
        {
          "internalType": "address",
          "name": "child",
          "type": "address"
        }
      ],
      "name": "getFrozen",
      "outputs": [
        {
          "internalType": "bool",
          "name": "",
          "type": "bool"
        }
      ],
      "stateMutability": "view",
      "type": "function"
    },
    {
      "inputs": [
        {
          "internalType": "address",
          "name": "",
          "type": "address"
        }
      ],
      "name": "isChild",
      "outputs": [
        {
          "internalType": "bool",
          "name": "",
          "type": "bool"
        }
      ],
      "stateMutability": "view",
      "type": "function"
    },
    {
      "inputs": [
        {
          "internalType": "address",
          "name": "",
          "type": "address"
        }
      ],
      "name": "limitsOf",
      "outputs": [
        {
          "internalType": "uint256",
          "name": "perTx",
          "type": "uint256"
        },
        {
          "internalType": "uint256",
          "name": "daily",
          "type": "uint256"
        }
      ],
      "stateMutability": "view",
      "type": "function"
    },
    {
      "inputs": [
        {
          "internalType": "address",
          "name": "",
          "type": "address"
        },
        {
          "internalType": "address",
          "name": "",
          "type": "address"
        }
      ],
      "name": "merchantWhitelist",
      "outputs": [
        {
          "internalType": "bool",
          "name": "",
          "type": "bool"
        }
      ],
      "stateMutability": "view",
      "type": "function"
    },
    {
      "inputs": [
        {
          "internalType": "address",
          "name": "",
          "type": "address"
        }
      ],
      "name": "parentOf",
      "outputs": [
        {
          "internalType": "address",
          "name": "",
          "type": "address"
        }
      ],
      "stateMutability": "view",
      "type": "function"
    },
    {
      "inputs": [
        {
          "internalType": "address",
          "name": "merchant",
          "type": "address"
        }
      ],
      "name": "pay",
      "outputs": [],
      "stateMutability": "payable",
      "type": "function"
    },
    {
      "inputs": [
        {
          "internalType": "uint256",
          "name": "amount",
          "type": "uint256"
        }
      ],
      "name": "requestTempLimit",
      "outputs": [],
      "stateMutability": "nonpayable",
      "type": "function"
    },
    {
      "inputs": [
        {
          "internalType": "address",
          "name": "child",
          "type": "address"
        },
        {
          "internalType": "bool",
          "name": "isFrozen",
          "type": "bool"
        }
      ],
      "name": "setFrozen",
      "outputs": [],
      "stateMutability": "nonpayable",
      "type": "function"
    },
    {
      "inputs": [
        {
          "internalType": "address",
          "name": "child",
          "type": "address"
        },
        {
          "internalType": "uint256",
          "name": "perTx",
          "type": "uint256"
        },
        {
          "internalType": "uint256",
          "name": "daily",
          "type": "uint256"
        }
      ],
      "name": "setLimits",
      "outputs": [],
      "stateMutability": "nonpayable",
      "type": "function"
    },
    {
      "inputs": [
        {
          "internalType": "address",
          "name": "merchant",
          "type": "address"
        },
        {
          "internalType": "bool",
          "name": "allowed",
          "type": "bool"
        }
      ],
      "name": "setMerchant",
      "outputs": [],
      "stateMutability": "nonpayable",
      "type": "function"
    },
    {
      "inputs": [
        {
          "internalType": "address",
          "name": "",
          "type": "address"
        }
      ],
      "name": "tempOf",
      "outputs": [
        {
          "internalType": "uint256",
          "name": "remaining",
          "type": "uint256"
        },
        {
          "internalType": "uint256",
          "name": "expires",
          "type": "uint256"
        }
      ],
      "stateMutability": "view",
      "type": "function"
    }
  ],
  "bytecode": "0x608060405234801561001057600080fd5b50611c94806100206000396000f3fe6080604052600436106100e85760003560e01c8063a08d56541161008a578063ee08388e11610059578063ee08388e146102f5578063f6daf14514610332578063fc91a8971461036f578063ffc8ada6146103ac576100e8565b8063a08d56541461023d578063ac869cd814610266578063d05166501461028f578063ea3c92b6146102cc576100e8565b8063298e685a116100c6578063298e685a1461015b5780634c37ce6214610198578063801ae66f146101d65780639d3a9dc9146101ff576100e8565b80630c11dedd146100ed578063195d159c146101095780631eee993a14610132575b600080fd5b61010760048036038101906101029190611502565b6103ea565b005b34801561011557600080fd5b50610130600480360381019061012b9190611565565b6108fa565b005b34801561013e57600080fd5b5061015960048036038101906101549190611502565b610ab5565b005b34801561016757600080fd5b50610182600480360381019061017d9190611502565b610d22565b60405161018f91906115d3565b60405180910390f35b3480156101a457600080fd5b506101bf60048036038101906101ba9190611502565b610d78565b6040516101cd9291906115fd565b60405180910390f35b3480156101e257600080fd5b506101fd60048036038101906101f89190611652565b610d9c565b005b34801561020b57600080fd5b5061022660048036038101906102219190611502565b610e99565b6040516102349291906115fd565b60405180910390f35b34801561024957600080fd5b50610264600480360381019061025f9190611565565b610ebd565b005b34801561027257600080fd5b5061028d60048036038101906102889190611652565b611062565b005b34801561029b57600080fd5b506102b660048036038101906102b19190611502565b6111f0565b6040516102c391906115d3565b60405180910390f35b3480156102d857600080fd5b506102f360048036038101906102ee9190611692565b611210565b005b34801561030157600080fd5b5061031c60048036038101906103179190611502565b6112ed565b60405161032991906116ce565b60405180910390f35b34801561033e57600080fd5b50610359600480360381019061035491906116e9565b611320565b60405161036691906115d3565b60405180910390f35b34801561037b57600080fd5b5061039660048036038101906103919190611502565b61134f565b6040516103a391906115d3565b60405180910390f35b3480156103b857600080fd5b506103d360048036038101906103ce9190611502565b61136f565b6040516103e19291906115fd565b60405180910390f35b600160003373ffffffffffffffffffffffffffffffffffffffff1673ffffffffffffffffffffffffffffffffffffffff16815260200190815260200160002060009054906101000a900460ff16610476576040517f08c379a000000000000000000000000000000000000000000000000000000000815260040161046d90611786565b60405180910390fd5b600460003373ffffffffffffffffffffffffffffffffffffffff1673ffffffffffffffffffffffffffffffffffffffff16815260200190815260200160002060009054906101000a900460ff1615610503576040517f08c379a00000000000000000000000000000000000000000000000000000000081526004016104fa906117f2565b60405180910390fd5b60008060003373ffffffffffffffffffffffffffffffffffffffff1673ffffffffffffffffffffffffffffffffffffffff16815260200190815260200160002060009054906101000a900473ffffffffffffffffffffffffffffffffffffffff169050600660008273ffffffffffffffffffffffffffffffffffffffff1673ffffffffffffffffffffffffffffffffffffffff16815260200190815260200160002060008373ffffffffffffffffffffffffffffffffffffffff1673ffffffffffffffffffffffffffffffffffffffff16815260200190815260200160002060009054906101000a900460ff1661062f576040517f08c379a00000000000000000000000000000000000000000000000000000000081526004016106269061185e565b60405180910390fd5b60003490506000600260003373ffffffffffffffffffffffffffffffffffffffff1673ffffffffffffffffffffffffffffffffffffffff16815260200190815260200160002060405180604001604052908160008201548152602001600182015481525050905060008160000151141580156106ae5750806000015182115b1561076a576000600560003373ffffffffffffffffffffffffffffffffffffffff1673ffffffffffffffffffffffffffffffffffffffff16815260200190815260200160002090508060010154421115801561070e575080600001548311155b61074d576040517f08c379a0000000000000000000000000000000000000000000000000000000008152600401610744906118ca565b60405180910390fd5b828160000160008282546107619190611919565b92505081905550505b60008160200151146107d857600061078133611384565b50905081602001518382610795919061194d565b11156107d6576040517f08c379a00000000000000000000000000000000000000000000000000000000081526004016107cd906119cd565b60405180910390fd5b505b6107e233836113fa565b60008473ffffffffffffffffffffffffffffffffffffffff168360405161080890611a1e565b60006040518083038185875af1925050503d8060008114610845576040519150601f19603f3d011682016040523d82523d6000602084013e61084a565b606091505b505090508061088e576040517f08c379a000000000000000000000000000000000000000000000000000000000815260040161088590611a7f565b60405180910390fd5b8473ffffffffffffffffffffffffffffffffffffffff163373ffffffffffffffffffffffffffffffffffffffff167f8ed7db30df47fbd87811a5e8a95a94838f0c0241263d9a1865d6a2a3e10516e2856040516108eb9190611a9f565b60405180910390a35050505050565b823373ffffffffffffffffffffffffffffffffffffffff166000808373ffffffffffffffffffffffffffffffffffffffff1673ffffffffffffffffffffffffffffffffffffffff16815260200190815260200160002060009054906101000a900473ffffffffffffffffffffffffffffffffffffffff1673ffffffffffffffffffffffffffffffffffffffff16146109c7576040517f08c379a00000000000000000000000000000000000000000000000000000000081526004016109be90611b06565b60405180910390fd5b604051806040016040528084815260200183426109e4919061194d565b815250600560008673ffffffffffffffffffffffffffffffffffffffff1673ffffffffffffffffffffffffffffffffffffffff16815260200190815260200160002060008201518160000155602082015181600101559050508373ffffffffffffffffffffffffffffffffffffffff163373ffffffffffffffffffffffffffffffffffffffff167f1d91b6bc3359675ccc127f0a5933fdd332dd9099fa2c6a11739d39350d6de273858542610a99919061194d565b604051610aa79291906115fd565b60405180910390a350505050565b600073ffffffffffffffffffffffffffffffffffffffff168173ffffffffffffffffffffffffffffffffffffffff1603610b24576040517f08c379a0000000000000000000000000000000000000000000000000000000008152600401610b1b90611b72565b60405180910390fd5b600073ffffffffffffffffffffffffffffffffffffffff166000808373ffffffffffffffffffffffffffffffffffffffff1673ffffffffffffffffffffffffffffffffffffffff16815260200190815260200160002060009054906101000a900473ffffffffffffffffffffffffffffffffffffffff1673ffffffffffffffffffffffffffffffffffffffff1614610bf1576040517f08c379a0000000000000000000000000000000000000000000000000000000008152600401610be890611bde565b60405180910390fd5b336000808373ffffffffffffffffffffffffffffffffffffffff1673ffffffffffffffffffffffffffffffffffffffff16815260200190815260200160002060006101000a81548173ffffffffffffffffffffffffffffffffffffffff021916908373ffffffffffffffffffffffffffffffffffffffff16021790555060018060008373ffffffffffffffffffffffffffffffffffffffff1673ffffffffffffffffffffffffffffffffffffffff16815260200190815260200160002060006101000a81548160ff0219169083151502179055508073ffffffffffffffffffffffffffffffffffffffff163373ffffffffffffffffffffffffffffffffffffffff167f50fea2e96d594d78d1380617b74e6f8ac1d275020bc08f95e6447c806bbd3d0860405160405180910390a350565b6000600460008373ffffffffffffffffffffffffffffffffffffffff1673ffffffffffffffffffffffffffffffffffffffff16815260200190815260200160002060009054906101000a900460ff169050919050565b60056020528060005260406000206000915090508060000154908060010154905082565b80600660003373ffffffffffffffffffffffffffffffffffffffff1673ffffffffffffffffffffffffffffffffffffffff16815260200190815260200160002060008473ffffffffffffffffffffffffffffffffffffffff1673ffffffffffffffffffffffffffffffffffffffff16815260200190815260200160002060006101000a81548160ff0219169083151502179055508173ffffffffffffffffffffffffffffffffffffffff163373ffffffffffffffffffffffffffffffffffffffff167f41c282618c523ed2ea47b644a3978a303d9b415e0607d46d64f38b481671017b83604051610e8d91906115d3565b60405180910390a35050565b60026020528060005260406000206000915090508060000154908060010154905082565b823373ffffffffffffffffffffffffffffffffffffffff166000808373ffffffffffffffffffffffffffffffffffffffff1673ffffffffffffffffffffffffffffffffffffffff16815260200190815260200160002060009054906101000a900473ffffffffffffffffffffffffffffffffffffffff1673ffffffffffffffffffffffffffffffffffffffff1614610f8a576040517f08c379a0000000000000000000000000000000000000000000000000000000008152600401610f8190611b06565b60405180910390fd5b604051806040016040528084815260200183815250600260008673ffffffffffffffffffffffffffffffffffffffff1673ffffffffffffffffffffffffffffffffffffffff16815260200190815260200160002060008201518160000155602082015181600101559050508373ffffffffffffffffffffffffffffffffffffffff163373ffffffffffffffffffffffffffffffffffffffff167f3837778e7be5f3bcfbbe5dc15ab036493d6d49f03a9aadf20fdb5939d70eb78a85856040516110549291906115fd565b60405180910390a350505050565b813373ffffffffffffffffffffffffffffffffffffffff166000808373ffffffffffffffffffffffffffffffffffffffff1673ffffffffffffffffffffffffffffffffffffffff16815260200190815260200160002060009054906101000a900473ffffffffffffffffffffffffffffffffffffffff1673ffffffffffffffffffffffffffffffffffffffff161461112f576040517f08c379a000000000000000000000000000000000000000000000000000000000815260040161112690611b06565b60405180910390fd5b81600460008573ffffffffffffffffffffffffffffffffffffffff1673ffffffffffffffffffffffffffffffffffffffff16815260200190815260200160002060006101000a81548160ff0219169083151502179055508273ffffffffffffffffffffffffffffffffffffffff163373ffffffffffffffffffffffffffffffffffffffff167f1352a8f33225e1fce11d406c7882416f1c1acdbd05ae1e67e2fbc4048f079012846040516111e391906115d3565b60405180910390a3505050565b60046020528060005260406000206000915054906101000a900460ff1681565b600160003373ffffffffffffffffffffffffffffffffffffffff1673ffffffffffffffffffffffffffffffffffffffff16815260200190815260200160002060009054906101000a900460ff1661129c576040517f08c379a000000000000000000000000000000000000000000000000000000000815260040161129390611786565b60405180910390fd5b3373ffffffffffffffffffffffffffffffffffffffff167f57ccf82fa5d1ca17b3bf6781906c9f46f81efa6949ec99c13c1d8b86185456cb826040516112e29190611a9f565b60405180910390a250565b60006020528060005260406000206000915054906101000a900473ffffffffffffffffffffffffffffffffffffffff1681565b60066020528160005260406000206020528060005260406000206000915091509054906101000a900460ff1681565b60016020528060005260406000206000915054906101000a900460ff1681565b60008061137b83611384565b91509150915091565b6000806000600360008573ffffffffffffffffffffffffffffffffffffffff1673ffffffffffffffffffffffffffffffffffffffff168152602001908152602001600020905060006113d4611489565b9050808260000154146113e85760006113ee565b81600101545b93508092505050915091565b6000600360008473ffffffffffffffffffffffffffffffffffffffff1673ffffffffffffffffffffffffffffffffffffffff16815260200190815260200160002090506000611447611489565b90508082600001541461146857808260000181905550600082600101819055505b8282600101600082825461147c919061194d565b9250508190555050505050565b6000620151804261149a9190611c2d565b905090565b600080fd5b600073ffffffffffffffffffffffffffffffffffffffff82169050919050565b60006114cf826114a4565b9050919050565b6114df816114c4565b81146114ea57600080fd5b50565b6000813590506114fc816114d6565b92915050565b6000602082840312156115185761151761149f565b5b6000611526848285016114ed565b91505092915050565b6000819050919050565b6115428161152f565b811461154d57600080fd5b50565b60008135905061155f81611539565b92915050565b60008060006060848603121561157e5761157d61149f565b5b600061158c868287016114ed565b935050602061159d86828701611550565b92505060406115ae86828701611550565b9150509250925092565b60008115159050919050565b6115cd816115b8565b82525050565b60006020820190506115e860008301846115c4565b92915050565b6115f78161152f565b82525050565b600060408201905061161260008301856115ee565b61161f60208301846115ee565b9392505050565b61162f816115b8565b811461163a57600080fd5b50565b60008135905061164c81611626565b92915050565b600080604083850312156116695761166861149f565b5b6000611677858286016114ed565b92505060206116888582860161163d565b9150509250929050565b6000602082840312156116a8576116a761149f565b5b60006116b684828501611550565b91505092915050565b6116c8816114c4565b82525050565b60006020820190506116e360008301846116bf565b92915050565b60008060408385031215611700576116ff61149f565b5b600061170e858286016114ed565b925050602061171f858286016114ed565b9150509250929050565b600082825260208201905092915050565b7f4e6f74206368696c640000000000000000000000000000000000000000000000600082015250565b6000611770600983611729565b915061177b8261173a565b602082019050919050565b6000602082019050818103600083015261179f81611763565b9050919050565b7f4368696c642066726f7a656e0000000000000000000000000000000000000000600082015250565b60006117dc600c83611729565b91506117e7826117a6565b602082019050919050565b6000602082019050818103600083015261180b816117cf565b9050919050565b7f4d65726368616e74206e6f742077686974656c69737465640000000000000000600082015250565b6000611848601883611729565b915061185382611812565b602082019050919050565b600060208201905081810360008301526118778161183b565b9050919050565b7f4f7665722070657254782c206e6f2074656d70206c696d697400000000000000600082015250565b60006118b4601983611729565b91506118bf8261187e565b602082019050919050565b600060208201905081810360008301526118e3816118a7565b9050919050565b7f4e487b7100000000000000000000000000000000000000000000000000000000600052601160045260246000fd5b60006119248261152f565b915061192f8361152f565b9250828203905081811115611947576119466118ea565b5b92915050565b60006119588261152f565b91506119638361152f565b925082820190508082111561197b5761197a6118ea565b5b92915050565b7f4f766572206461696c7900000000000000000000000000000000000000000000600082015250565b60006119b7600a83611729565b91506119c282611981565b602082019050919050565b600060208201905081810360008301526119e6816119aa565b9050919050565b600081905092915050565b50565b6000611a086000836119ed565b9150611a13826119f8565b600082019050919050565b6000611a29826119fb565b9150819050919050565b7f5472616e73666572206661696c65640000000000000000000000000000000000600082015250565b6000611a69600f83611729565b9150611a7482611a33565b602082019050919050565b60006020820190508181036000830152611a9881611a5c565b9050919050565b6000602082019050611ab460008301846115ee565b92915050565b7f4e6f7420706172656e7400000000000000000000000000000000000000000000600082015250565b6000611af0600a83611729565b9150611afb82611aba565b602082019050919050565b60006020820190508181036000830152611b1f81611ae3565b9050919050565b7f5a65726f20616464720000000000000000000000000000000000000000000000600082015250565b6000611b5c600983611729565b9150611b6782611b26565b602082019050919050565b60006020820190508181036000830152611b8b81611b4f565b9050919050565b7f416c7265616479206c696e6b6564000000000000000000000000000000000000600082015250565b6000611bc8600e83611729565b9150611bd382611b92565b602082019050919050565b60006020820190508181036000830152611bf781611bbb565b9050919050565b7f4e487b7100000000000000000000000000000000000000000000000000000000600052601260045260246000fd5b6000611c388261152f565b9150611c438361152f565b925082611c5357611c52611bfe565b5b82820490509291505056fea26469706673582212203984588d3c2384b5d4a9fd5254a67323c1bb84e8237ae93a3f761b71040d8ce964736f6c63430008140033",
  "linkReferences": {},
  "deployedLinkReferences": {}
}